{
  "contractName": "HealthRecord",
  "abi": [
    {
      "constant": true,
      "inputs": [
        {
          "name": "",
          "type": "uint256"
        }
      ],
      "name": "records",
      "outputs": [
        {
          "name": "diagnos_with",
          "type": "string"
        },
        {
          "name": "priority",
          "type": "uint256"
        },
        {
          "name": "doctor_id",
          "type": "string"
        },
        {
          "name": "confirm_id",
          "type": "string"
        }
      ],
      "payable": false,
      "stateMutability": "view",
      "type": "function"
    },
    {
      "constant": true,
      "inputs": [],
      "name": "recordCount",
      "outputs": [
        {
          "name": "",
          "type": "uint256"
        }
      ],
      "payable": false,
      "stateMutability": "view",
      "type": "function"
    },
    {
      "anonymous": false,
      "inputs": [
        {
          "indexed": true,
          "name": "_candidateId",
          "type": "uint256"
        }
      ],
      "name": "votedEvent",
      "type": "event"
    },
    {
      "constant": false,
      "inputs": [
        {
          "name": "_name",
          "type": "string"
        },
        {
          "name": "_priority",
          "type": "uint256"
        },
        {
          "name": "_doctor_id",
          "type": "string"
        },
        {
          "name": "_confirm_id",
          "type": "string"
        }
      ],
      "name": "addRecord",
      "outputs": [],
      "payable": false,
      "stateMutability": "nonpayable",
      "type": "function"
    }
  ],
  "bytecode": "0x608060405234801561001057600080fd5b5061068c806100206000396000f300608060405260043610610057576000357c0100000000000000000000000000000000000000000000000000000000900463ffffffff168063344610671461005c57806343a949b5146101e1578063900407bc146102e0575b600080fd5b34801561006857600080fd5b506100876004803603810190808035906020019092919050505061030b565b60405180806020018581526020018060200180602001848103845288818151815260200191508051906020019080838360005b838110156100d55780820151818401526020810190506100ba565b50505050905090810190601f1680156101025780820380516001836020036101000a031916815260200191505b50848103835286818151815260200191508051906020019080838360005b8381101561013b578082015181840152602081019050610120565b50505050905090810190601f1680156101685780820380516001836020036101000a031916815260200191505b50848103825285818151815260200191508051906020019080838360005b838110156101a1578082015181840152602081019050610186565b50505050905090810190601f1680156101ce5780820380516001836020036101000a031916815260200191505b5097505050505050505060405180910390f35b3480156101ed57600080fd5b506102de600480360381019080803590602001908201803590602001908080601f016020809104026020016040519081016040528093929190818152602001838380828437820191505050505050919291929080359060200190929190803590602001908201803590602001908080601f0160208091040260200160405190810160405280939291908181526020018383808284378201915050505050509192919290803590602001908201803590602001908080601f0160208091040260200160405190810160405280939291908181526020018383808284378201915050505050509192919290505050610503565b005b3480156102ec57600080fd5b506102f56105b5565b6040518082815260200191505060405180910390f35b6000602052806000526040600020600091509050806000018054600181600116156101000203166002900480601f0160208091040260200160405190810160405280929190818152602001828054600181600116156101000203166002900480156103b75780601f1061038c576101008083540402835291602001916103b7565b820191906000526020600020905b81548152906001019060200180831161039a57829003601f168201915b505050505090806001015490806002018054600181600116156101000203166002900480601f01602080910402602001604051908101604052809291908181526020018280546001816001161561010002031660029004801561045b5780601f106104305761010080835404028352916020019161045b565b820191906000526020600020905b81548152906001019060200180831161043e57829003601f168201915b505050505090806003018054600181600116156101000203166002900480601f0160208091040260200160405190810160405280929190818152602001828054600181600116156101000203166002900480156104f95780601f106104ce576101008083540402835291602001916104f9565b820191906000526020600020905b8154815290600101906020018083116104dc57829003601f168201915b5050505050905084565b60016000815480929190600101919050555060806040519081016040528085815260200184815260200183815260200182815250600080600154815260200190815260200160002060008201518160000190805190602001906105679291906105bb565b5060208201518160010155604082015181600201908051906020019061058e9291906105bb565b5060608201518160030190805190602001906105ab9291906105bb565b5090505050505050565b60015481565b828054600181600116156101000203166002900490600052602060002090601f016020900481019282601f106105fc57805160ff191683800117855561062a565b8280016001018555821561062a579182015b8281111561062957825182559160200191906001019061060e565b5b509050610637919061063b565b5090565b61065d91905b80821115610659576000816000905550600101610641565b5090565b905600a165627a7a72305820bd4a1c7634fea69128d33a18b568dcdf979fdd7d2d3ed4b3b9248678a732b1390029",
  "source": "pragma solidity ^0.4.25;\n\ncontract HealthRecord {\n    // Model a record\n    struct Record {\n        string diagnos_with;\n        uint priority;\n        string doctor_id;\n        string confirm_id;\n    }\n\n    mapping(uint => Record) public records;\n   \n    uint public recordCount;\n\n    //voted event\n    event votedEvent (\n        uint indexed _candidateId\n    );\n\n    function addRecord (string _name, uint _priority, string _doctor_id, string _confirm_id) public {\n        recordCount ++;\n        records[recordCount] = Record(_name, _priority, _doctor_id, _confirm_id);\n\n    }\n}\n",
  "sourcePath": "C:/Users/Vikas Mehra/healthr/contracts/HealthRecord.sol",
  "compiler": {
    "name": "solc",
    "version": "0.4.25+commit.59dbf8f1.Emscripten.clang"
  },
  "schemaVersion": "3.0.22",
  "updatedAt": "2020-05-20T12:24:15.824Z",
  "networkType": "ethereum",
  "devdoc": {
    "methods": {}
  },
  "userdoc": {
    "methods": {}
  }
}