{
  "contractName": "HealthRecord",
  "abi": [
    {
      "constant": true,
      "inputs": [
        {
          "name": "",
          "type": "uint256"
        }
      ],
      "name": "records",
      "outputs": [
        {
          "name": "diagnos_with",
          "type": "string"
        },
        {
          "name": "priority",
          "type": "string"
        }
      ],
      "payable": false,
      "stateMutability": "view",
      "type": "function"
    },
    {
      "constant": true,
      "inputs": [],
      "name": "recordCount",
      "outputs": [
        {
          "name": "",
          "type": "uint256"
        }
      ],
      "payable": false,
      "stateMutability": "view",
      "type": "function"
    },
    {
      "constant": true,
      "inputs": [
        {
          "name": "",
          "type": "address"
        }
      ],
      "name": "voters",
      "outputs": [
        {
          "name": "",
          "type": "bool"
        }
      ],
      "payable": false,
      "stateMutability": "view",
      "type": "function"
    },
    {
      "anonymous": false,
      "inputs": [
        {
          "indexed": true,
          "name": "_candidateId",
          "type": "uint256"
        }
      ],
      "name": "votedEvent",
      "type": "event"
    },
    {
      "constant": false,
      "inputs": [
        {
          "name": "_name",
          "type": "string"
        },
        {
          "name": "_priority",
          "type": "string"
        }
      ],
      "name": "addRecord",
      "outputs": [],
      "payable": false,
      "stateMutability": "nonpayable",
      "type": "function"
    }
  ],
  "bytecode": "0x608060405234801561001057600080fd5b50610576806100206000396000f300608060405260043610610062576000357c0100000000000000000000000000000000000000000000000000000000900463ffffffff1680633446106714610067578063900407bc14610179578063a3ec138d146101a4578063c9596248146101ff575b600080fd5b34801561007357600080fd5b50610092600480360381019080803590602001909291905050506102ae565b604051808060200180602001838103835285818151815260200191508051906020019080838360005b838110156100d65780820151818401526020810190506100bb565b50505050905090810190601f1680156101035780820380516001836020036101000a031916815260200191505b50838103825284818151815260200191508051906020019080838360005b8381101561013c578082015181840152602081019050610121565b50505050905090810190601f1680156101695780820380516001836020036101000a031916815260200191505b5094505050505060405180910390f35b34801561018557600080fd5b5061018e610402565b6040518082815260200191505060405180910390f35b3480156101b057600080fd5b506101e5600480360381019080803573ffffffffffffffffffffffffffffffffffffffff169060200190929190505050610408565b604051808215151515815260200191505060405180910390f35b34801561020b57600080fd5b506102ac600480360381019080803590602001908201803590602001908080601f0160208091040260200160405190810160405280939291908181526020018383808284378201915050505050509192919290803590602001908201803590602001908080601f0160208091040260200160405190810160405280939291908181526020018383808284378201915050505050509192919290505050610428565b005b6001602052806000526040600020600091509050806000018054600181600116156101000203166002900480601f01602080910402602001604051908101604052809291908181526020018280546001816001161561010002031660029004801561035a5780601f1061032f5761010080835404028352916020019161035a565b820191906000526020600020905b81548152906001019060200180831161033d57829003601f168201915b505050505090806001018054600181600116156101000203166002900480601f0160208091040260200160405190810160405280929190818152602001828054600181600116156101000203166002900480156103f85780601f106103cd576101008083540402835291602001916103f8565b820191906000526020600020905b8154815290600101906020018083116103db57829003601f168201915b5050505050905082565b60025481565b60006020528060005260406000206000915054906101000a900460ff1681565b60026000815480929190600101919050555060408051908101604052808381526020018281525060016000600254815260200190815260200160002060008201518160000190805190602001906104809291906104a5565b50602082015181600101908051906020019061049d9291906104a5565b509050505050565b828054600181600116156101000203166002900490600052602060002090601f016020900481019282601f106104e657805160ff1916838001178555610514565b82800160010185558215610514579182015b828111156105135782518255916020019190600101906104f8565b5b5090506105219190610525565b5090565b61054791905b8082111561054357600081600090555060010161052b565b5090565b905600a165627a7a7230582088b120bb00855e39b61e79f1f972bcb70be13755763f28c11543df8d5c5198a70029",
  "source": "pragma solidity ^0.4.25;\n\ncontract HealthRecord {\n    // Model a record\n    struct Record {\n        string diagnos_with;\n        string priority;\n    }\n\n    // Store accounts that have voted\n    mapping(address => bool) public voters;\n    // Store Candidates\n    // Fetch Candidate\n    mapping(uint => Record) public records;\n    // Store Candidates Count\n    uint public recordCount;\n\n    //voted event\n    event votedEvent (\n        uint indexed _candidateId\n    );\n\n    function addRecord (string _name, string _priority) public {\n        recordCount ++;\n        records[recordCount] = Record(_name, _priority);\n\n    }\n}\n",
  "sourcePath": "C:/Users/Vikas Mehra/Healthrecord/contracts/HealthRecord.sol",
  "compiler": {
    "name": "solc",
    "version": "0.4.25+commit.59dbf8f1.Emscripten.clang"
  },
  "schemaVersion": "3.0.22",
  "updatedAt": "2020-04-22T12:44:26.541Z",
  "networkType": "ethereum",
  "devdoc": {
    "methods": {}
  },
  "userdoc": {
    "methods": {}
  }
}